S01900006D6163726F7061645F6669726D776172652E7372656308
S1130000BBC00000D4C00000D2C00000D0C00000BB
S1130010CEC00000CCC00000CAC00000C8C00000B0
S1130020C6C00000C4C00000BDC50000C0C00000C0
S1130030BEC00000BCC00000BAC00000B8C00000D0
S1130040B6C00000B4C00000B2C00000B0C00000E0
S1130050AEC00000ACC00000AAC00000A8C00000F0
S1130060A6C00000A4C00000A2C00000A0C0000000
S11300709EC000009CC000009AC0000098C0000010
S113008096C0000094C0000092C0000090C0000020
S11300908EC000008CC000008AC0000088C0000030
S11300A086C0000084C0000082C0000026034C000B
S11300B055004600410020004B00650079006200B5
S11300C06F006100720064002000440065006D0050
S11300D06F00000018034400650061006E002000FA
S11300E0430061006D0065007200610000000403BC
S11300F0090409022900010100C0320904000002B8
S113010003010100092111010001223F00070581BB
S11301100308000507050203080005120110010089
S1130120000008EB0342200100010200010501095F
S113013006A101050719E029E715002501750195B8
S113014008810295017508810105081901290595A1
S11301500575019102950175039101150025650549
S11301600719002965950675088100C00021221E23
S11301701F2000262723242511241FBECFEFDAE0F9
S1130180DEBFCDBF11E0A0E0B1E0E8E6F0E102C0DF
S113019005900D92A632B107D9F721E0A6E2B1E0AD
S11301A001C01D92A334B207E1F7E6D15BC728CFA3
S11301B0292F332723303105C9F038F42130310594
S11301C059F02230310569F035C02132310541F151
S11301D02232310551F12EC082E190E02BE131E071
S11301E032C089E290E022EF30E02DC099278130BF
S11301F0910551F018F0029769F021C0EEEEF0E09D
S1130200849190E09F011FC0E4EDF0E0849190E0C0
S11302109F0119C0ECEAF0E0849190E09F0113C0C3
S113022089E090E024E031E00EC08FE390E02DE21D
S113023031E009C080E090E020E030E004C080E0DC
S113024090E020E030E0FA0131832083089584B700
S1130250877F84BF0FB6F894A89580916000886169
S113026080936000109260000FBE90E080E80FB6AB
S1130270F89480936100909361000FBE75C4089553
S113028042E061EC81E065D342E060EC82E061D35E
S1130290E2EEF0E0808184608083089580913401EF
S11302A090913501009729F001979093350180933F
S11302B034010895CF93DF93DC0188E0FD011192AE
S11302C08A95E9F720E030E090E0F901FF27E25D4C
S11302D0FE4F40814A30B1F4963068F013C081E09B
S11302E0890FF901E459FE4FE491ED01C90FD11DC5
S11302F0EA83982F07C02115310589F78C91826014
S11303008C93EDCF2F5F3F4F23303105F1F620E082
S113031030E0F901FF27E25DFE4F43814A3069F482
S1130320963058F481E0890FF901E159FE4FE491C8
S1130330ED01C90FD11DEA83982F2F5F3F4F233062
S1130340310539F7DF91CF9108950F931F93CF9320
S1130350DF93CDB7DEB728970FB6F894DEBF0FBE94
S1130360CDBF80913C01833009F443C030F4813027
S113037071F0823009F483C099C08A3009F462C0F4
S11303808B3009F449C0893009F090C018C08091BD
S11303903B01813A09F08AC0CE0101968BDF08EE59
S11303A010E0F8018081877F808368E070E0CE01EF
S11303B00196C6D1F80180818B77808377C08091C4
S11303C03B01813209F072C0E8EEF0E08081877F62
S11303D0808305C080913A01882309F467C0808135
S11303E082FFF8CFE8EEF0E080818B77808317D32B
S11303F05DC080913B01813A09F058C0E8EEF0E01D
S11304008081877F8083809102018093F1008081C5
S11304108E77808304D34AC080913B01813209F0F6
S113042045C0E8EEF0E08081877F8083F8D281E0E8
S113043020913D0130913E01232B09F480E080930B
S1130440020134C080913B01813281F5E8EEF0E095
S11304508081877F8083E3D280913D0190913E012A
S113046088270024880F991F001C880F991F001CDF
S1130470892F902D909301018093000117C08091E2
S11304803B01813A99F4E8EEF0E08081877F808334
S11304908091000190910101969587959695879595
S11304A08093F10080818E778083B9D228960FB62D
S11304B0F894DEBF0FBECDBFDF91CF911F910F9196
S11304C00895CF93DF93CDB7DEB728970FB6F8948E
S11304D0DEBF0FBECDBFCE010196ECDE80910001E0
S11304E090910101009791F02091340130913501F0
S11304F0232B61F4909335018093340181E0809340
S1130500E9008091E80085FD13C027C048E050E071
S1130510BE016F5F7F4F86E291E097D59C0191E029
S11305209093E9009091E80095FF17C0232BA9F060
S113053088E0FE013196A6E2B1E001900D928A9521
S1130540E1F740E050E068E070E0CE0101969BD016
S1130550E8EEF0E080818E77808328960FB6F894D9
S1130560DEBF0FBECDBFDF91CF91089580913A01D8
S1130570843009F4A6CF08956ADE249825980F2EB6
S1130580F1E1EF2EF1E0FF2EF02D0F2EF6E28F2E8B
S1130590F1E09F2EF02DF70141E050E0A281B381FC
S11305A02C91CA01068002C0880F991F0A94E2F7B1
S11305B0982F909592239C93A481B5819C91892B2B
S11305C08C9337968E169F0649F7789401E111E0D3
S11305D0CC24C394D12C23E031E06EE271E0D90144
S11305E012964D915C911397EA018881E601169663
S11305F00C9002C0CC0FDD1F0A94E2F78C2BDA01B9
S11306008C93D9011496ED91FC9115978081BC2EA1
S1130610B0948B218083BAE6BA95F1F700C0DB0170
S1130620F70180819181EC01888190E0068002C00D
S1130630959587950A94E2F780FD06C08C918A30DF
S113064040F48F5F8C9305C08C91882311F0815006
S11306508C93379611968E169F0619F7FA018081AE
S1130660B822B082295F3F4F6D5F7F4F201731075B
S113067009F0B5CF7BDFCFD48FEC97E00197F1F78A
S113068000C00000A8CF8F929F92AF92BF92CF92EA
S1130690DF92EF92FF920F931F93CF93DF938C011E
S11306A0EB015A01E0D181113EC0A114B10439F02B
S11306B0F50180819181C81BD90B080F191F209760
S11306C089F1E12CF12C0F2EF8EE8F2E912CF02DC8
S11306D00F2EF1EFCF2ED12CF02DF401808185FD6A
S11306E014C080818E77808396D4A114B10449F01C
S11306F0F50180819181E80EF91EF182E08285E0A6
S113070012C0B1D1882351F00EC0F80181918F013C
S1130710F60180832197FFEFEF1AFF0A2097E9F68D
S113072080E001C080E0DF91CF911F910F91FF9095
S1130730EF90DF90CF90BF90AF909F908F900895EF
S1130740CF92DF92FF920F931F93CF93DF93209169
S11307504101309142012617370758F061157105A0
S113076039F4E8EEF0E020812E7720839B0101C06C
S11307709B01A82FB92F10E0E8EEF0E063EF70E0E2
S113078042EF50E00F2EF1EFCF2ED12CF02D01E0EF
S1130790F12C30C080913A01882309F442C085309D
S11307A009F441C0808183FD40C0808182FD32C054
S11307B0808180FF1FC0EB011881EA01888190E0ED
S11307C0912B2115310579F08830910560F41D9144
S11307D0E60118832150310901962115310519F0DC
S11307E088309105A1F7102F089709F01F2D8081FB
S11307F08E7780832115310569F61111CBCF0AC09C
S113080080913A01882399F0853099F0808183FFA3
S113081003C011C0E8EEF0E0808182FFF1CF80E0F8
S11308200BC082E009C083E007C081E005C082E01C
S113083003C083E001C081E0DF91CF911F910F914C
S1130840FF90DF90CF900895CF92DF92FF920F93A5
S11308501F93CF93DF9320914101309142012617DA
S1130860370758F06115710539F4E8EEF0E020819E
S11308702E7720839B0101C09B01E82FF92F10E004
S1130880A8EEB0E063EF70E042EF50E00F2EF1EF1E
S1130890CF2ED12CF02D01E0F12C31C080913A0102
S11308A0882309F443C0853009F442C08C9183FD48
S11308B041C08C9182FD33C08C9180FF20C0EB013C
S11308C01881EA01888190E0912B2115310581F08E
S11308D08830910568F41491E6011883319621500B
S11308E0310901962115310519F08830910599F7E0
S11308F0102F089709F01F2D8C918E778C9321155A
S1130900310561F61111CACF0AC080913A018823DA
S113091099F0853099F0808183FF03C011C0E8EE1F
S1130920F0E0808182FFF1CF80E00BC082E009C05B
S113093083E007C081E005C082E003C083E001C01A
S113094081E0DF91CF911F910F91FF90DF90CF90C5
S113095008958F929F92BF92CF92DF92EF92FF926F
S11309600F931F93CF93DF93873070F126C0292F05
S11309702F70E7012883891731F0E80178812081FD
S1130980E401588103C0242F762F5B2D21FF12C070
S11309903C913E7F3C9330813D7F30833C9131607C
S11309A03C93E80178832083E4015883E60128819D
S11309B0222344F49F5F9730D1F68F708093E9002F
S11309C081E021C080E01FC0982F9F709093E900C0
S11309D0982F242F762F50E0ABEEB0E0EDEEF0E050
S11309E00CEE10E00F2EF0EF8F2E912CF02D0F2E29
S11309F0FEEECF2ED12CF02D0F2EF9EEEF2EF12C92
S1130A00F02DB12CC3CFDF91CF911F910F91FF90A7
S1130A10EF90DF90CF90BF909F908F90089580913A
S1130A203B01882344F0E8EEF0E014C080913A01E1
S1130A30811103C00895E8EEF0E0808182FFF6CFD3
S1130A40E8EEF0E080818B778083089580913A010D
S1130A50882341F0808180FFF9CFE8EEF0E08081C7
S1130A608E77808308950F931F93CF93DF93209104
S1130A70E4003091E50065E6ACEEB0E0E8EEF0E0CD
S1130A800BEE10E044EE50E001C09C019C91892FD4
S1130A90817090FD1DC020C080913A01882381F0AF
S1130AA0853081F0E801888185FD0EC0EA018881E6
S1130AB099812817390751F3615039F784E00FC041
S1130AC082E00DC083E00BC081E009C080E007C074
S1130AD0808180FFE1CFFACF908192FFDDCFDF915B
S1130AE0CF911F910F9108950F931F93CF93DF938D
S1130AF04CD053D0C8EDD0E088818F77888388812B
S1130B008068888388818F7D888319BC10923A011C
S1130B1010923601109238011092370100EE10E065
S1130B20F80180818B7F808388818160888342E0A3
S1130B3060E080E00EDFE1EEF0E080818E7F808374
S1130B40E2EEF0E080818160808380818860808330
S1130B50F80180818E7F8083888180618883DF9122
S1130B60CF911F910F910895E8EDF0E080818F7E81
S1130B708083E7EDF0E080818160808384E082BF40
S1130B8081E080933901B0CF0895E8EDF0E08081F1
S1130B908E7F80831092E20008951092DA00109202
S1130BA0E10008951F920F920FB60F9211242F9314
S1130BB03F934F935F936F937F938F939F93AF93E1
S1130BC0BF93EF93FF938091E10082FF0AC080916D
S1130BD0E20082FF06C0E1EEF0E080818B7F80833B
S1130BE05DDB8091DA0080FF1DC08091D80080FF1A
S1130BF019C0EAEDF0E080818E7F80838091D90076
S1130C0080FF0CC080E189BD82E189BD09B400FE8A
S1130C10FDCF81E080933A01FDD104C019BC10924C
S1130C203A01F8D18091E10080FF16C08091E20082
S1130C3080FF12C0E2EEF0E080818E7F80838081AD
S1130C4080618083E8EDF0E080818062808319BC5C
S1130C5085E080933A01DED18091E10084FF2FC0CA
S1130C608091E20084FF2BC080E189BD82E189BDCF
S1130C7009B400FEFDCFE8EDF0E080818F7D808334
S1130C80E1EEF0E080818F7E8083E2EEF0E080810F
S1130C908F7E808380818160808380913601882368
S1130CA021F084E080933A0109C08091E300882315
S1130CB014F081E001C083E080933A01ABD18091CC
S1130CC0E10083FF1EC08091E20083FF1AC0E1EEC1
S1130CD0F0E08081877F808382E080933A011092E4
S1130CE0360180818E7F8083E2EEF0E080818E7F0A
S1130CF0808380818061808342E060E080E029DE3F
S1130D0089D1FF91EF91BF91AF919F918F917F9185
S1130D106F915F914F913F912F910F900FBE0F9064
S1130D201F9018950F931F93CF93DF93CDB7DEB722
S1130D30AA970FB6F894DEBF0FBECDBFEBE3F1E088
S1130D4023E431E0A1EFB0E08C9181932E173F07AB
S1130D50D9F7FBDA8091E80083FF37C1EBE3F1E0D8
S1130D6090818181853009F47FC030F48130C9F1EC
S1130D7068F08330B1F129C1883009F4F1C08930B9
S1130D8009F4FEC0863009F020C191C0903821F0EA
S1130D90923809F01AC108C0809137019091380146
S1130DA0992389F082600FC080913F018F70873052
S1130DB008F00BC1E9EEF0E080838091EB0085FB45
S1130DC0882780F91082E8EEF0E09081977F908385
S1130DD0A1EFB0E08C931C9280818E7780831FDE1C
S1130DE0F4C0992309F400C1923009F0EEC001C1A6
S1130DF091E0833009F090E0909338012CC0809109
S1130E003F018F709FEF980F963008F0DEC08093FB
S1130E10E9009091EB0090FF1EC090913C0193304B
S1130E2031F4EBEEF0E080818062808314C0EBEE5D
S1130E30F0E090819061908321E030E0A90102C04C
S1130E40440F551F8A95E2F7AAEEB0E04C931C922A
S1130E508081886080831092E900E8EEF0E0808170
S1130E60877F8083DCDDB1C09111AFC010913D015B
S1130E701F77E3EEF0E080818078812B8083E8EEB9
S1130E80F0E08081877F8083CADDE8EEF0E0808136
S1130E9080FFFDCFE3EEF0E0808180688083111154
S1130EA002C082E001C083E080933A018EC0905872
S1130EB0923008F08AC080913D0190913E018C3DB2
S1130EC053E0950799F583E08A838AE289835FB7C3
S1130ED0F894DE01139620E03EE041E2E32FF0E0D7
S1130EE040935700849120FF03C082958F703F5F29
S1130EF08F708A3018F090E0C79602C090E0C096D8
S1130F008D939D932F5F243149F75FBF08EE10E066
S1130F10F8018081877F80836AE270E0CE010196C8
S1130F200FDCF80180818B7780834FC060913F0193
S1130F3070914001AE014F5F5F4F3AD9BC01892BDC
S1130F4009F443C008EE10E0F8019081977F908384
S1130F5089819A8179DCF80180818B77808335C01F
S1130F60903899F5E8EEF0E08081877F8083809166
S1130F7036018093F10080818E77808350DD25C017
S1130F80911123C080913D0190913E0199270297D0
S1130F90E4F4E8EEF0E08081877F808380913D0176
S1130FA0809336013CDD80913601882321F084E072
S1130FB080933A0109C08091E300882314F081E012
S1130FC001C084E080933A015BD98091E80083FFFB
S1130FD016C0E8EEF0E08081877F8083EBEEF0E0DE
S1130FE08081806280830BC090913D01913069F7CC
S1130FF0FFCE80913D01882309F401CF2CCFAA961E
S11310000FB6F894DEBF0FBECDBFDF91CF911F9115
S11310100F9108950895CF9380913A01882399F010
S1131020C091E900CF708091EC00982F917080FD01
S113103090E8C92B1092E9008091E80083FD72DEEC
S1131040CF70C093E900CF910895FB01DC0104C087
S11310508D910190801921F441505040C8F7881BAC
S10B1060990B0895F894FFCFE9
S1131068F4010123002400250004230024002500A2
S1131078052300240025000626002700280006264C
S109108800270028000708
S9030000FC
